:100000000C9403020C942C0A0C944A020C944A029D
:100010000C944A020C944A020C944A020C944A0230
:100020000C944A020C944A020C94D3210C94A522FD
:100030000C9464180C944A020C944A020C944A02E0
:100040000C944A020C944A020C944A020C944A0200
:100050000C944A020C94CC180C944A020C944A0258
:100060000C944A020C944A020C944A020C944A02E0
:100070000C944A020C944A020C944A020C944A02D0
:100080000C944A020C944A020C944A020C944A02C0
:100090000C944A020C944A020C944A020C944A02B0
:1000A0000C944A020C944A020C944A02EF0DEF0D94
:1000B000210E210E6E0E8C0EE40FE40FCE0E630F98
:1000C000740F740FD40FE40FE40FDD0F6A106A1081
:1000D0007C107C1073107C107C107C106A106A10ED
:1000E00078107C107C1078101223392331243923A6
:1000F00031248523A8233124FF230E2429001E0048
:100100001F002000210022002B0014001A0008000C
:1001100015001700E10004001600070009000A009E
:1001200002511D001B000600190005000000000020
:100130002F003000E0002800000000002A003500F9
:100140002B004A00230024002500260027002A0057
:100150001C0018000C00120013002D000B000D00F5
:100160000E000F003300340011001000360037007D
:10017000380031002C0001512E022E00000000003A
:100180004D004C00E300E2000000000035021E02BA
:100190001F022002210222020100010001000100D1
:1001A00001002F0001004A004B004E004D002602C6
:1001B0000100010001000100010001000000000039
:1001C00001004600010001000000000001000100E4
:1001D00001000100230224022502260227024C000E
:1001E000300001005200010001002E0227025000E1
:1001F00051004F002D0031020100010001000100FB
:100200002E002D020100010001000100000000008D
:1002100001000100010001000000000045003A005B
:100220003B003C003D003E000100010001000100D8
:1002300001002F0001000100010001000100260261
:1002400001000100010001000100010000000000A8
:100250000100010001000100000000000100010098
:10026000010001003F004000410042004300440003
:1002700030000100530049004700A8002702AC00ED
:10028000AE00AB000100A900010001000100010067
:100290000100AA00010001002E0001000000000082
:1002A0000100010001000100000000000403300013
:1002B00000002C03440061006300740079006C00AE
:1002C0002D004D0061006E00750066006F00720029
:1002D0006D0020002800350078003600290000005D
:1002E0000E037400730068006F0072007400000059
:1002F0000403090409023B00020100A0FA090400FA
:100300000001030101000921110100012240000741
:1003100005810308000A0904010001030000000927
:1003200021110100012285000705820320000A1225
:1003300001100100000008EDFE6030010001020321
:100340000105010902A10185020901A100050919A0
:100350000129051500250195057501810295017595
:100360000381010501093009311581257F95027549
:1003700008810609381581257F95017508810605D4
:100380000C0A38021581257F950175088106C0C0C9
:1003900005010980A10185031A81002A8300160145
:1003A00000260300950175108100C0050C0901A10C
:1003B0000185041A01002A9C02160100269C029560
:1003C0000175108100C005010906A101050719E0AA
:1003D00029E7150025019508750181029501750829
:1003E00081010507190029FF150026FF00950675F4
:1003F00008810005081901290595057501910295E7
:100400000175039101C011241FBECFEFDAE0DEBFFA
:10041000CDBF04B603FE27C0809121029091220235
:10042000A0912302B09124028730904BA740B04B9B
:10043000D1F4109221021092220210922302109203
:10044000240214BE84B7877F84BF0FB6F894A895A2
:1004500080916000886180936000109260000FBE00
:10046000E0E0F8E3099511E0A0E0B1E0EEEAF9E49C
:1004700002C005900D92A833B107D9F722E0A8E396
:10048000B1E001C01D92A132B207E1F70E94021F44
:100490000C94D5240C9400000C94D10581E00895AF
:1004A00081E008950C9450021F93CF93DF9300D006
:1004B00000D01F92CDB7DEB749835A836B8320915A
:1004C000750189819A81211112C0662349F00E9429
:1004D000F615182F682F89819A810E949D1503C0F7
:1004E0000E94C915182F69817A81812F04C00E944A
:1004F000F61569817A810F900F900F900F900F90F1
:10050000DF91CF911F910C942403FC014081518114
:100510006281738184810C9454020E942817811196
:1005200002C00E94C8170C944C020C94D305089585
:100530000C94970281E008950C949A02CF93C82FEF
:100540000E9498028C2F0E949C02CF9108950895DA
:100550000E9458100E94A7022FEF84E39CE02150D4
:1005600080409040E1F700C0000087E797E7909354
:100570000108809300080C94F2180F931F93CF93F7
:10058000DF93EC010E9485028C01BE010E945202A1
:10059000882309F44FC0BE01C8010E9417088823B0
:1005A00009F448C0BE01C8010E945808882309F414
:1005B00041C08A81882371F001158CE5180739F054
:1005C0000E3D8CE5180731F40E94C81733C00E9415
:1005D000A80230C006311C4531F50E947716982FCD
:1005E0008A812091090130910A01882379F09A7A51
:1005F00081E009F480E080933801911102C069E242
:1006000001C065E3C9010E9402180AC08091380147
:10061000811102C069E201C065E3C9010E940418AA
:100620000E94C51607C0CE01DF91CF911F910F9197
:100630000C944E0280E0DF91CF911F910F910895AD
:1006400080E090E00895089528E4829FC00111247D
:10065000FC0126E0729FE00DF11D1124E60FF11D53
:10066000EE0FFF1FE450FF4F859194910895880F7E
:10067000991FFC01E455FD4F859194910895CF9306
:10068000DF930E9424030E94F904EC018115904538
:1006900008F041C0C11580E4D80708F028C1C83E61
:1006A000D10510F5C03ED10508F09FC1C83AD1056B
:1006B00078F4C53AD10508F0A2C0C130D10509F4DB
:1006C00094C108F445C1C430D10508F08EC140C1C1
:1006D000CF3BD10508F49EC0C03CD10508F438C119
:1006E000CE01805C9109F5C0C11590E2D90758F49C
:1006F000C11521E0D20708F078C1C03FD10508F448
:1007000027C1D06572C1C11580E3D80708F0E5C0E4
:10071000CE019F70DEC0C11595E5D90708F043C032
:10072000C11524E5D20708F0F9C0C11582E5D80744
:1007300008F5C11591E5D90708F0DCC0CE0174E0D9
:10074000969587957A95E1F783709C2F937021E0B9
:1007500030E002C0220F331F9A95E2F73C68382B35
:10076000CF70C695C69580E2C89FE0011124C22BC8
:10077000D32B3BC19E01237033278C2F8695869502
:10078000C115D34508F0BBC0C1E0D0E002C0CC0F1A
:10079000DD1F2A95E2F720E2829FC0011124C82BB9
:1007A000D92BDC6822C1C11529E5D207A0F4C115F7
:1007B00088E5D80708F0B7C0C11596E5D90708F055
:1007C000C7C08C2F0E948D058F71C82FD0E0DC2F01
:1007D000CC27D0620AC1C1152AE5D20708F4A8C007
:1007E000CE0190568115904208F0B2C08D2F8F71C6
:1007F0000E948D05DD27D0628F71D82BF6C0C53AD7
:10080000D10509F4A8C0C63AD10509F0A7C0C2E8CD
:10081000D0E4EBC0C83AD10509F4A3C0C93AD10568
:1008200009F4A2C0CA3AD10509F4A1C0CB3AD10556
:1008300009F4A0C0CC3AD10509F49FC0CB3BD10547
:1008400009F49EC0CC3BD10509F49DC0CD3AD10539
:1008500009F49CC0C03BD10509F49BC0CE3AD10538
:1008600009F49AC0CF3AD10509F499C0C13BD1052A
:1008700009F498C0C23BD10509F497C0C33BD10528
:1008800009F496C0C43BD10509F495C0C53BD10518
:1008900009F494C0C63BD10509F493C0C73BD10508
:1008A00009F492C0C83BD10509F491C0C93BD105F8
:1008B00009F490C0CD3BD10509F48FC0CE3BD105E2
:1008C00009F48EC0CA3BD10509F48DC0C0E0D4E460
:1008D0008CC00E943703EC0188C0CE019927D3FF5A
:1008E00003C0EC01D86C81C0EC01D06C7EC0DF701D
:1008F000D06A7BC0DC2FCC27C16FD06A76C0C1E044
:10090000D0E002C0CC0FDD1F2A95E2F720E2829FE3
:10091000C0011124C82BD92BDA6867C0DC2FCC2783
:10092000C46FD06A62C0DC2FCC27C06FD06A5DC0B4
:100930008C2F8F700E948D0594E0D695C7959A955F
:10094000E1F7CF70D0E0DC2FCC27D069C82B4DC0A9
:10095000C0E0D0E04AC0C1E8D0E447C0C3E8D0E47A
:1009600044C0C2EED4E441C0C9EED4E43EC0CAEEF5
:10097000D4E43BC0C5EBD4E438C0C6EBD4E435C006
:10098000C3EBD4E432C0C4EBD4E42FC0C7EBD4E44F
:100990002CC0CCECD4E429C0CDECD4E426C0C3E810
:1009A000D5E423C0CAE8D5E420C0C2E9D5E41DC01F
:1009B000C4E9D5E41AC0C1E2D6E417C0C3E2D6E464
:1009C00014C0C4E2D6E411C0C5E2D6E40EC0C6E24B
:1009D000D6E40BC0C7E2D6E408C0CFE6D4E405C035
:1009E000C0E7D4E402C0CAE2D6E4CE01DF91CF91E1
:1009F00008958238910569F1B0F48133910509F4C5
:100A00006DC048F48932910509F463C08A329105BA
:100A100009F469C008958533910509F455C08933F7
:100A20009105B9F00895833E910569F138F4803E4F
:100A30009105B1F0823E910509F10895863E910538
:100A4000A9F1873E9105B9F1843E910509F064C092
:100A500023C02091120220FD4FC021FD4DC00895FA
:100A60008091120280FD44C08091130280FF44C037
:100A70008091120284FD42C083EE4DC0809112022B
:100A800082FF38C0F5CF8091120282FD33C0809181
:100A9000130280FD31C0ECCF8091130281FF32C080
:100AA0008091120284FD2AC087EE35C08091120227
:100AB00083FF26C0F5CF8091120283FD21C0809173
:100AC000130281FD1FC0ECCF8091120285FD1CC076
:100AD0001DC08091120285FD19C016C080911202BE
:100AE00086FD16C017C08091120286FD13C010C08B
:100AF00089E311C082EE0FC080EE0DC080E00BC014
:100B000086EE09C084EE07C089E205C085E303C014
:100B10008AE201C081E390E008959091120292FF71
:100B20000DC0282F2871283019F4877F846006C0F3
:100B3000282F2471243011F48B7F886093FF0DC01F
:100B4000282F2871283119F4877E846106C0282F48
:100B50002471243111F48B7E88612091130220FFCF
:100B60000DC0382F3871383019F4877F816006C086
:100B7000382F3171313011F48E7F886021FF0DC024
:100B8000282F2871283119F4877E816106C0282F0B
:100B90002171213111F48E7E886194FD877E089544
:100BA00008950C94D0050C94D00508950895E82F6D
:100BB000F0E0E65CFE4F80810895CF93DF930E94C2
:100BC00062078091000180910001811102C096E0CE
:100BD00001C090E090930B0286E0891B80930A028B
:100BE000A1E2B1E047E251E061E070E08D91E82FD1
:100BF000E295EF70F0E021A18F70EB0102C0CC0F05
:100C0000DD1F8A95E2F7CE019C2F9095922391A348
:100C100092A1892B82A34A175B0741F7ABE1B1E0B0
:100C200041E251E061E070E08D91E82FE295EF70D4
:100C3000F0E021A18F70EB0102C0CC0FDD1F8A957F
:100C4000E2F7CE019C2F9095922391A392A1892B3C
:100C500082A34A175B0741F7E6E4F1E0AAE3B1E0BB
:100C600082E591E011921D928E179F07D9F786E0D9
:100C70000E94FC06DF91CF910C948D020E944C07DC
:100C8000882309F180910A0290E0865C9E4F0E94C1
:100C90007907811114C0809139018F5F80933901E8
:100CA000863078F0E0910A02F0E0E65CFE4F80E0EA
:100CB00090E01192019686309105D9F702C010920A
:100CC00039010C94950280910B0290E0865C9E4F56
:100CD0000E9494070C94D6056F927F928F929F92F8
:100CE000AF92BF92CF92DF92EF92FF920F931F933A
:100CF000CF93DF9361E271E0A6E4B1E02CE4A22E91
:100D000021E0B22E712C01E010E06D019C901C924C
:100D1000EB018991BE01E82FE295EF70F0E021A18F
:100D20008F70A80102C0440F551F8A95E2F7CA01CF
:100D3000242B21A322A1642E6094262122A350EA11
:100D40005A95F1F79BE1E92E91E0F92E40E050E051
:100D5000E70189907E01282D22952F7030E0E9016E
:100D600028A130E0D82DDF7002C035952795DA959F
:100D7000E2F720FD07C09801042E01C0220F0A945B
:100D8000EAF702C020E030E03C91232B2C934F5F28
:100D90005F4F46305105E1F691A1D62DD923D1A35D
:100DA00092A1892B82A3119681E0F601908199117D
:100DB00001C080E0782AAA16BB0609F0A6CF609190
:100DC0000B0270E0665C7E4F272D46E086E491E0E2
:100DD0000E94FD060E943E06872DDF91CF911F9154
:100DE0000F91FF90EF90DF90CF90BF90AF909F90CA
:100DF0008F907F906F9008950895FF920F931F93A7
:100E0000CF93DF938C01F62ED72FC42F222349F0E6
:100E100081E0809354010E9496189093530180932F
:100E20005201809154018823C1F080915201909128
:100E300053010E94A218069780F0EF2DFD2FD801D4
:100E40004C2F50E0CD01801B910B841795071CF4AB
:100E50008D918193F7CF10925401DF91CF911F9123
:100E60000F91FF90089589E19091E30097FD12C0E2
:100E70002FEF31EE94E0215030409040E1F700C078
:100E80000000815089F78091D8008F768093D80038
:100E900080E0089581E0089580915501811109C095
:100EA0000E943307811102C082E001C081E080937B
:100EB000550181E090915501913009F080E008954D
:100EC0000C944C070E946007809300010E944C071D
:100ED00081110C946D070C94730761E070E081E060
:100EE00091E00C94DE0961E070E081E091E00C9407
:100EF000E509CF93DF93D82FC92F0E947D0A892B54
:100F000079F4ED2FFC2F80E090E0DC01A95ABE4F70
:100F10002C912193019686309105B9F781E001C0AB
:100F200080E0DF91CF91089520E030E0FC01419115
:100F3000CF01F901E95AFE4F40832F5F3F4F263022
:100F40003105A1F708950F931F93CF93DF93C62F19
:100F5000D42F122FFC0182818823C9F060935F0196
:100F60000E94961890935E0180935D0180E28C0F41
:100F7000883008F057C0C77081E001C0880FCA955B
:100F8000EAF7DF91CF911F910F910C94AF0D8091F3
:100F90005F01681330C080915D0190915E010E94F5
:100FA000A218883C910538F500E20D0FCD17B9F075
:100FB00080E28C0F883040F4C77081E001C0880F58
:100FC000CA95EAF70E94B60D083028F581E09D2FFA
:100FD000977001C0880F9A95EAF70E94AF0D812F94
:100FE0000E949C0D0830F0F4D77081E001C0880F9A
:100FF000DA95EAF70AC080E28C0F883098F4C7705F
:1010000081E001C0880FCA95EAF7DF91CF911F9167
:101010000F910C94B60D812FDF91CF911F910F91FD
:101020000C949C0DDF91CF911F910F9108959C011D
:10103000CB01233F4CE53407F9F078F4283DFCE57B
:101040003F07B9F0293D4CE5340711F1273D3C45F8
:1010500031F526E241EE61EE1EC0253FFCE53F077B
:1010600099F070F0263F3C45D1F427E245EE66EE5C
:1010700012C027E245EE0EC026E241EE60EE0BC044
:1010800027E245EE64EE07C026E241EE62EE03C0C1
:1010900028E241E065EE0E94A30780E00895FC018C
:1010A0008281882319F010925F01089581E00895EC
:1010B000CF93DF93EC01FB018281882309F41FC1E8
:1010C000C230FCE5DF0708F41BC1C6319CE5D90737
:1010D00038F09E012A5F3C452930310508F010C1E7
:1010E0000E943B179093130280931202C031ECE5EB
:1010F000DE0709F4C3C008F041C0C8308CE5D8074A
:1011000009F49AC0F0F4C430ECE5DE0709F487C0B6
:1011100068F4C2308CE5D80709F477C0C330DC45E9
:1011200009F0E3C080911202826076C0C630ECE51F
:10113000DE0709F46EC008F07BC08091120288605F
:101140006BC0CC308CE5D80709F485C068F4CA3090
:10115000ECE5DE0709F474C008F079C00E9458106D
:1011600080911202806858C0CE308CE5D80709F40F
:1011700076C008F07FC0809112028BC0CB3FECE5B7
:10118000DE0709F44FC018F5C3318CE5D80709F420
:101190007DC078F4C131ECE5DE0709F473C0C231DB
:1011A000DC4509F0A2C00E945810809112028F778E
:1011B00033C0C5318CE5D80709F472C008F486C085
:1011C000CA3FDC4509F091C0809113023EC0CF3F79
:1011D000FCE5DF0709F45FC058F4CD3F9CE5D90773
:1011E00009F444C008F43FC08091130282602DC00E
:1011F000C130FDE5DF0709F475C008F45DC0C230F9
:10120000DD4509F072C080E06EC0809112028160FD
:1012100003C08091120280618093120266C08091A7
:10122000120211C0809113028260809313025DC08C
:10123000809112028062F0CF809112028064ECCF24
:101240008091120288608460E7CF8160EECF809148
:1012500012028E7FE1CF809112028D7FDDCF8091CF
:101260001202877FD9CF8091130218C08091130298
:101270008D7FDBCF809112028F7ECECF80911202C4
:101280008F7DCACF809112028F7BC6CF80911202D0
:10129000877F8B7FC1CF809113028D7F8E7FC5CFDB
:1012A0008091120282FB222720F991E0922790FB85
:1012B00082F990FB83F9B0CF80911302982F90951B
:1012C00091708E7F892B90FB81F9AFCF0E945810CF
:1012D0008091120287FB222720F991E0922790FB50
:1012E00087F99ACF81E00E94CA17809112029091EB
:1012F00013020E944C170E94581080E001C081E048
:10130000DF91CF9108958EE1489B02C08150E1F7B3
:10131000489BFECF0895589880E28A95F1F7589A35
:101320000895FC012AE02A95F1F728E090E080E09A
:1013300031E040E14A95F1F7880F489B02C0816097
:10134000932700C0000040E14A95F1F7215089F74A
:1013500020E12A95F1F729B100C0000030E13A956B
:10136000F1F7217092272081920F90830895EF92D8
:10137000FF920F931F93CF93DF931F92CDB7DEB7EA
:1013800019828C017C01E60EF11C0E151F0551F02F
:101390000E948309CE0101960E949109F801819370
:1013A0008F01F3CF81E09981911180E00F90DF915F
:1013B000CF911F910F91FF90EF900895909361014D
:1013C00080936001509A589A089590936101809398
:1013D00060015098589AE89AE9E6F0E080818C7FA5
:1013E00080830895615091E001C0990F6A95EAF7F2
:1013F00020E031E0992361F0492F482319F0589AF1
:10140000232701C0589840E24A95F1F79695F2CF0C
:10141000222311F0589A01C0589880E28A95F1F77A
:1014200058980895FF920F931F93CF93DF93EC0189
:101430008C01060F111DC017D10741F0F9900E94D1
:101440008B0968E08F2D0E94F209F5CFDF91CF91D3
:101450001F910F91FF9008951F920F920FB60F9258
:1014600011242F933F934F935F936F937F938F93A9
:101470009F93AF93BF93CF93DF93EF93FF935898CE
:10148000509AC0916001D09161016D81662321F075
:101490008E819F810E94120A0E948B0980E18A95A9
:1014A000F1F758985098589A80E18A95F1F76A8137
:1014B000662351F08B819C810E94B709E881F981F4
:1014C000811104C082E003C0E881F98188E0808353
:1014D0000E948309FF91EF91DF91CF91BF91AF916E
:1014E0009F918F917F916F915F914F913F912F913C
:1014F0000F900FBE0F901F901895CF93DF93C09160
:101500006001D0916101F894509A589885E08A95CD
:10151000F1F700005098589A80E28A95F1F7489BBD
:101520000AC0509A589AE881F98181E080837894C2
:1015300081E090E02CC06D81662381F08E819F81D7
:101540000E94B70981110AC0509A589AE881F9811E
:1015500082E08083789482E090E019C00E94830941
:1015600080E28A95F1F75898509A80E18A95F1F7D0
:101570006A81662321F08B819C810E94120A0E945D
:101580008B09E881F9811082789480E090E0DF9106
:10159000CF91089590936701809366010895E0913B
:1015A0006601F0916701309721F00190F081E02D04
:1015B000099480E00895E0916601F0916701309709
:1015C00021F00280F381E02D09940895E0916601F5
:1015D000F0916701309739F022E0DC012C93048010
:1015E000F581E02D09940895209164013091650101
:1015F0002817390771F09093650180936401E09199
:101600006601F0916701309721F00680F781E02DA7
:1016100009940895209162013091630128173907D8
:1016200071F09093630180936201E0916601F09103
:101630006701309721F00084F185E02D0994089529
:1016400085B7806885BF85B7806885BF0895089590
:101650000C94270B0C94280B0C94270B0C94270B41
:101660000E94200B0E942C0B0C942A0B0E948D18B8
:101670000E94DD050E9403190C942E0BAF92BF92BD
:10168000CF92DF92EF92FF920F931F93CF93DF934E
:10169000CDB7DEB72A970FB6F894DEBF0FBECDBF29
:1016A0000E946C060E944C07811111C08FEF898344
:1016B0008A831B820E9496188160782F9D838C8379
:1016C00049815A816B818D810E94D60B40C089E689
:1016D000A82E81E0B82E00E010E0C02E802F0E94DE
:1016E000D705E82EF501D1905F01D82631F40F5FC0
:1016F0001F4F0C30110589F7D9CF8091F00181FD82
:101700000E94D50580E0FF24F3949D2D9F21D1F008
:101710008E83CF82EF2081E009F480E088870E94E9
:1017200096188160782F9A8789874E815F816885B6
:101730008A850E94D60BF801E759FE4F8081F82672
:10174000F08205C08F5FFF0C8630F9F6D0CF0E9483
:10175000951A0E94CF0A909168018917B1F00E94F2
:10176000CF0A809368012A960FB6F894DEBF0FBEA9
:10177000CDBFDF91CF911F910F91FF90EF90DF9040
:10178000CF90BF90AF900C949E022A960FB6F8941B
:10179000DEBF0FBECDBFDF91CF911F910F91FF90A4
:1017A000EF90DF90CF90BF90AF900895CF93DF93ED
:1017B000CDB7DEB72B970FB6F894DEBF0FBECDBF07
:1017C0004F83588769877A878B87DE01119686E079
:1017D000FD0111928A95E9F785E0FE0137960190A7
:1017E0000D928A95E1F749815A816B817C818D81C7
:1017F0009E810E9462132B960FB6F894DEBF0FBE37
:10180000CDBFDF91CF910895FC01808191810E942D
:1018100038160895CF93882309F424C1C82F82383D
:10182000C1F40E94CF0A81FD1DC169E380910901C5
:1018300090910A010E9402180E94C5162FEF81EEB6
:1018400094E0215080409040E1F700C0000069E33F
:1018500019C0833801F50E94CF0A80FD03C163E5FA
:101860008091090190910A010E9402180E94C516F8
:101870002FEF81EE94E0215080409040E1F700C0CE
:10188000000063E58091090190910A010E9404180B
:10189000CF910C94C5168438C1F40E94CF0A82FD02
:1018A000E1C067E48091090190910A010E94021849
:1018B0000E94C5162FEF81EE94E0215080409040A9
:1018C000E1F700C0000067E4DDCF8CEF8C0F813AB8
:1018D00068F48C2F0E94C51C8111C4C06C2F8091AC
:1018E000090190910A010E940218D2CF80E28C0F68
:1018F000883048F4C77081E001C0880FCA95EAF7C4
:101900000E947A16C5CF8BE58C0F833078F4C53AE8
:1019100029F0C63A31F083E890E005C081E890E014
:1019200002C082E890E0CF910C94F40A88E58C0F15
:10193000873108F08FC0C83A09F445C0C93A09F4A4
:1019400045C0CA3A09F445C0CB3A09F445C0CC3A7F
:1019500009F445C0CB3B09F445C0CC3B09F445C074
:10196000CD3A09F445C0C03B09F445C0CE3A09F46C
:1019700045C0CF3A09F445C0C13B09F445C0C23B5C
:1019800009F445C0C33B09F445C0C43B09F445C054
:10199000C53B09F445C0C63B09F445C0C73B09F443
:1019A00045C0C83B09F445C0C93B09F445C0CD3B1F
:1019B00009F445C0CE3B09F445C0CA3B09F445C013
:1019C00080E090E044C082EE90E041C089EE90E07B
:1019D0003EC08AEE90E03BC085EB90E038C086EBDD
:1019E00090E035C083EB90E032C084EB90E02FC0F4
:1019F00087EB90E02CC08CEC90E029C08DEC90E05F
:101A000026C083E891E023C08AE891E020C082E903
:101A100091E01DC084E991E01AC081E292E017C014
:101A200083E292E014C084E292E011C085E292E089
:101A30000EC086E292E00BC087E292E008C08FE61B
:101A400090E005C080E790E002C08AE292E0CF918A
:101A50000C940A0BC03F30F08C2F0E949D19CF913F
:101A60000C948A1ACF910895882309F464C08238AF
:101A700079F40E94CF0A81FF5EC069E38091090179
:101A800090910A010E9402180E94C51669E310C0D5
:101A90008338B1F40E94CF0A80FF4DC063E5809186
:101AA000090190910A010E9402180E94C51663E57F
:101AB0008091090190910A010E9404180C94C516A6
:101AC000843879F40E94CF0A82FF35C067E48091A0
:101AD000090190910A010E9402180E94C51667E44C
:101AE000E7CF9CEF980F913A10F4682FE1CF90E286
:101AF000980F983050F4877091E001C0990F8A9543
:101B0000EAF7892F0E948016D9CF9BE5980F933072
:101B100020F480E090E00C94F40A98E5980F973157
:101B200020F480E090E00C940A0B803F20F00E94AB
:101B3000051A0C948A1A0895CF93C82F0E940A0C94
:101B4000C93349F42FEF87EE93E021508040904055
:101B5000E1F700C000008C2FCF910C94340D882346
:101B600021F00E947A160C94C5160895882321F05E
:101B70000E9480160C94C5160895CF92DF92EF92C2
:101B8000FF920F931F93CF93DF937C01062FC72FF4
:101B9000FC01158112951F70D281D1110E949716F8
:101BA0000E947016882379F0DD2369F080E2800FAF
:101BB000883048F082E00E940F170E94701691E072
:101BC000D82ED92601C0D12CCC2EC2948FE0C822A9
:101BD0008C2D90E0FC01EA5AFF4F0C9479248C2F55
:101BE000807FCF70882311F0C295C07FDD2399F0EC
:101BF000CC2309F4C4C180E2800F883010F00111B9
:101C000004C08C2F0E947A1603C08C2F0E948A1663
:101C10000E94C516B4C1802F0E94340DCC2309F454
:101C2000D3C180E2800F883010F0011104C08C2FE6
:101C30000E94801603C08C2F0E9490160E94C51629
:101C4000C3C18C2F807FCF70803211F0C295C07FCE
:101C5000002319F00130C9F022C0DD2371F01123F7
:101C600041F0113031F40E94AA168C2B0E94B2165A
:101C7000ABC10E94AA168C2B1DC0112319F0113084
:101C800009F4A2C10E94BB1625C0DD2321F0163045
:101C900008F09AC10EC0153008F096C11BC0DD23B4
:101CA00061F0112331F0F701858180FF68C18F70E9
:101CB00085838C2F0E94AF0D87C1112359F0093302
:101CC00009F06EC1FFEF27EE83E0F1502040804025
:101CD000E1F764C18C2F0E94B60D76C18C2F8695DA
:101CE0008695837019F0813061F06EC1DD2321F09B
:101CF000802F9C2F937002C080E090E00E94F40A35
:101D00006BC1DD2321F0802F9C2F937002C080E0F7
:101D100090E00E940A0B60C1DD23F9F0053F51F00D
:101D2000063F71F0043FA9F480910C0290910D02DE
:101D300081600BC080910C0290910D02826005C001
:101D400080910C0290910D02846090930D0280931B
:101D50000C02802F0E949D191EC0053F51F0063FC6
:101D600071F0043FA9F480910C0290910D028E7FD6
:101D70000BC080910C0290910D028D7F05C0809167
:101D80000C0290910D028B7F90930D0280930C02B8
:101D9000802F0E94051A0E948A1A1EC18C2F837000
:101DA00009F045C0D11114C1402F429546954770A6
:101DB000440F440F602F6F70862F90E0A0E0B0E0DA
:101DC000042E04C0880F991FAA1FBB1F0A94D2F7C4
:101DD00004FF10C00FE010E020E030E004C0000F6E
:101DE000111F221F331F4A95D2F700951095209599
:101DF000309503C000E010E09801C695C695C37009
:101E0000BC01CD01602B712B822B932BC23049F08A
:101E100058F4C13019F00E94B314DAC00E94A11422
:101E2000D7C00E94C514D4C00E949F14D1C0DD2326
:101E300019F08C2F817001C08695882309F4C8C0E1
:101E4000402F429546954770440F440F602F6F70A6
:101E5000862F90E0A0E0B0E0042E04C0880F991F08
:101E6000AA1FBB1F0A94D2F704FF10C00FE010E0B6
:101E700020E030E004C0000F111F221F331F4A95DD
:101E8000D2F7009510952095309503C000E010E042
:101E90009801C695C695C370BC01CD01602B712B0E
:101EA000822B932BC23049F058F4C13019F00E94B4
:101EB00078158EC00E9466158BC00E948A1588C056
:101EC0000E94D91485C0CF70DD2339F08C2F0E9479
:101ED000FF14802F0E94AF0D7BC0802F0E94B60D93
:101EE0008C2F0E94201574C0023F01F128F4003F9E
:101EF00041F0013FA1F03FC0033FF9F0043F39F149
:101F00003AC0DD2341F0153008F05EC08C2F8F7190
:101F10000E94451559C0163008F056C0F7CFDD2392
:101F200039F08C2F8F710E94FF144EC0DD23C9F34E
:101F30008C2F8F710E94201547C0DD2329F08C2F34
:101F40008F710E94EA1440C00E94E5143DC0DD2359
:101F500049F0CF718C2F0E94FF1463E08C2F0E94F8
:101F6000FA1632C081E00E940F17123068F182E049
:101F70000E940F1729C0DD2331F0112391F2802F29
:101F80000E940A0C21C0112399F2093349F49FEFF2
:101F9000E7EEF3E09150E040F040E1F700C00000D0
:101FA000802F0E94340D10C04C2F4F70602FC7013E
:101FB0000E9420030E9410140FC04C2F4F70602FFE
:101FC000C7010E94230308C088EF8C0D843020F4E1
:101FD0000E94CF0A0E949E02DD20C9F00E946C166A
:101FE00080FD15C0F70112820E9466160E94FF1440
:101FF000C7010E9410100E946616DF91CF911F91B9
:102000000F91FF90EF90DF90CF900C942015DF910F
:10201000CF911F910F91FF90EF90DF90CF90089597
:102020000F931F93CF93DF93EC01988189812B81CC
:102030003C81232B31F08F3F31F481E09F3F19F435
:1020400003C081E001C080E080FD13C0CE010E948A
:10205000BD02882371F0688179818A810E944316CC
:102060008C010E949C150E948D14B801CE010E9423
:10207000BD0DDF91CF911F910F9108950E9497168A
:102080000E94A7160E94C5160E94301B0E948A1A41
:1020900080E090E00E94F40A80E090E00C940A0B4B
:1020A0008091090190910A010E9406180C943E103B
:1020B0000E9487160C945010E92FE295EF704E2F76
:1020C00050E0FA013297EE30F105B0F4EA59FF4FD3
:1020D0000C947924803F91F018F4883E68F40EC087
:1020E000843F51F40BC0883E48F0813F29F406C07C
:1020F00093FB882780F9089580E0089581E0089592
:102100000E9438160E945C100895CF93DF9300D090
:1021100000D01F92CDB7DEB70F900F900F900F90A9
:102120000F90DF91CF910895CF93DF9300D000D02F
:1021300000D0CDB7DEB726960FB6F894DEBF0FBE3F
:10214000CDBFDF91CF9108951F93CF93DF93C091BF
:10215000760116E080917701C81799F0D0E01C9FB6
:10216000F0011D9FF00D1124E858FE4F4081518170
:1021700062817381848195810E9494102196C77039
:10218000E9CFDF91CF911F9108954091A80150911F
:10219000A9016091AA017091AB018091AC0190916D
:1021A000AD010C949410209176019091770156E046
:1021B0002917A9F030E0529FF001539FF00D112430
:1021C000E858FE4F7181761306C07081781303C002
:1021D0007281741306C02F5F3F4F2770E9CF80E0F4
:1021E000089581E00895CF938091AD0182958F701D
:1021F00009F05FC08091AA01882309F45AC0809138
:102200007601B09177017091A801A091A901409148
:10221000AB015091AC0191E07F3F09F090E0692F54
:10222000C6E08B1709F445C04115510521F0AF3FB9
:1022300021F020E003C021E001C0262F90E020FD26
:1022400035C0C89FF001C99FF00D1124E858FE4F1A
:1022500021812A132BC02081271328C0228121111C
:1022600025C0238134812417350710F4215031090A
:10227000241B350B283C3105C8F42091AD012F708B
:1022800020612093AD0126E0289FF001299FF00DE9
:102290001124E358FE4F80818F708061808388EA2B
:1022A00091E00E941010CF910C94A41001968770B9
:1022B000B8CFCF9108959F92AF92BF92CF92DF9205
:1022C000EF92FF920F931F93CF93DF93CDB7DEB7BB
:1022D00061970FB6F894DEBF0FBECDBF7C0185E0DD
:1022E000F701DE011D9601900D928A95E1F7D70165
:1022F000DC9011960C9111971296CC903091A80118
:102300004091A9018091AB019091AC01009731F00F
:102310004F3F31F421E03F3F19F403C021E001C0F9
:1023200020E020FD9FC1F701A380B4809090AA0116
:10233000992009F42BC12091AD01A816B90628F007
:10234000B501681B790BCB0104C0809590958A0D6F
:102350009B1D11E0883C910590F010E0207F09F072
:10236000DBC07A2DB98AA88A4D2D502F6C2D898912
:102370000E94851088EA91E00E9410106BC1822FA4
:10238000807F09F091C0041315C0D31213C01C2D17
:10239000C11010C02F7020612093AD010E94C510A4
:1023A00088EA91E00E9410108091AD01D701159646
:1023B0008C9375C1A114B10439F00F3F39F481E059
:1023C000BFEFDB1203C003C081E001C080E080FDED
:1023D00003C081E08C2502C080E090E080FF15C042
:1023E0004C2D602F8D2D0E94D310882371F088EA28
:1023F00091E00E941010E8EAF1E086E0DF011D9212
:102400008A95E9F70E94C5104DC0AB2839F00F3FFF
:1024100039F481E0BFEFDB1203C003C081E001C0EB
:1024200080E080FD03C081E08C2502C080E090E068
:10243000E82FE170BE2E80FF2CC04C2D602F8D2D1B
:102440000E94D310182F811124C0DD860E878D8540
:102450009E850E943816292F22952F70223018F061
:10246000243090F405C09F7059F0811109C017C144
:102470009F7031F0D70115969C91907F09F40FC1A0
:10248000805E883008F40BC1C7010E9410101B2D1C
:1024900006C11C2DCC2009F402C18091AD018160E0
:1024A0008093AD0110E0FBC0041309C0D31207C034
:1024B000C11005C08091AD01F7018583A5C0DD86FF
:1024C0000E878D859E850E948010882379F1CC200F
:1024D00069F12091AD01822F82958F7090E0029773
:1024E00074F08091A8019091A90198878F83198633
:1024F000BB86AA862C87CE0107960E94101086E024
:10250000F701A8EAB1E001900D928A95E1F70E94E7
:10251000F3100E94C5100DC0041769F0DD860E8708
:102520008D859E850E948010811119C0C7010E946F
:10253000101011E0B4C0D312F1CFC110EFCF8091D1
:10254000AD01F7018583C7010E94101086E0E8EA1B
:10255000F1E0DF011D928A95E9F7192DA0C0CC208A
:1025600029F32091AD01822F82958F7090E0029720
:1025700034F28091A8019091A9019A8389831B82EA
:10258000BD82AC822E83CE010196B7CFA816B906C4
:1025900028F0F501E81BF90BCF0104C08095909558
:1025A0008A0D9B1D883C910558F010E07A2DB98A60
:1025B000A88A4D2D502F6C2D89890E9485104AC004
:1025C0001C2DCC2009F4B2CF041333C0D31231C078
:1025D0002091AD0120FD24C0822F82958F70482F5D
:1025E00050E041155105E1F0D70115962C93159750
:1025F0004F30510549F08F5F982F9295907F822F31
:102600008F70892B15968C93C7010E94101086E05D
:10261000F701A8EAB1E001900D928A95E1F73DC07B
:1026200086E0F701A8EAB1E001900D928A95E1F702
:1026300036C0DD860E878D859E850E9480108111B3
:102640005ECF8091AD0181608093AD01C7010E9492
:10265000101025C0E8EAF1E086E0DF011D928A95BE
:10266000E9F71BC0CC2009F461CFDD860E878D858C
:102670009E850E948010182F882309F457CF86E08A
:10268000F701A8EAB1E001900D928A95E1F788EA96
:1026900091E00E94040C0E94F3100E94C510812F4B
:1026A00061960FB6F894DEBF0FBECDBFDF91CF911C
:1026B0001F910F91FF90EF90DF90CF90BF90AF9060
:1026C0009F9008951F93CF93DF93CDB7DEB72C97DC
:1026D0000FB6F894DEBF0FBECDBF4F835887698712
:1026E0007A878B879C87CE0107960E945B1188238F
:1026F000D1F09F8188852A853B85232B31F08F3F40
:1027000031F481E09F3F19F403C081E001C080E013
:1027100080FD47C04F81588569857A858B859C856A
:102720000E9494103EC086E0FE013796DE011196AD
:1027300001900D928A95E1F7FF81E8856A857B8596
:102740006115710531F0EF3F31F481E0FF3F19F47D
:1027500003C081E001C080E080FD23C020917701AB
:1027600030E0C9010196877099274091760150E0C9
:1027700084179507F1F1F983EA837D836C8396E0F2
:10278000929FD001939FB00D1124A858BE4FFE0117
:10279000319601900D929A95E1F7809377010E940E
:1027A000A41016E08091760190917701891771F15C
:1027B000189FC001112488589E4F0E945B118823E6
:1027C00029F1E09176011E9FF0011124E858FE4F97
:1027D0004081518162817381848195810E9494102E
:1027E0008091760190E00196877099278093760119
:1027F000D9CF0E9458101092770110927601E8EA22
:10280000F1E086E0DF011D928A95E9F72C960FB67C
:10281000F894DEBF0FBECDBFDF91CF911F91089519
:10282000EF92FF920F931F93CF93DF938C01892B2D
:1028300009F46CC0F12CEE24E394E8012196F80130
:102840008491843740F4843008F051C0813081F0A5
:10285000823019F15BC0853709F444C0A8F19CE7C8
:10286000980F903708F052C08F770E94340D41C006
:102870000E5F1F4FFE01849190E2980F983050F444
:102880008770FE2D01C0FF0F8A95EAF78F2F0E94F7
:102890009A1614C00E940A0C2DC00E5F1F4FFE0135
:1028A000849190E2980F983060F48770FE2D01C0FB
:1028B000FF0F8A95EAF78F2F0E94A0160E94C51677
:1028C00019C00E94340D16C00E5F1F4FFE01C49147
:1028D000CC2381F08FE99FE00197F1F700C0000061
:1028E000C150F6CF0E5F1F4FFE01F49003C00E944F
:1028F0000A0C8E018F2D882309F49FCFEFE9FFE0AA
:102900003197F1F700C000008150F5CFDF91CF91F2
:102910001F910F91FF90EF900895089508950C94E2
:102920008E140C948F140E9491146093DF017093A5
:10293000E0018093E1019093E2010C943E100C942D
:1029400093140F931F930091DF011091E0012091E8
:10295000E1013091E201602B712B822B932B1F91AF
:102960000F910C9493140F931F930091DF0110911A
:10297000E0012091E1013091E20160237123822383
:1029800093231F910F910C9493140F931F93009115
:10299000DF011091E0012091E1013091E201602717
:1029A0007127822793271F910F910C9493140C94F5
:1029B0008E140E94D7146093DB017093DC01809326
:1029C000DD019093DE010C943E1060E070E0CB01DD
:1029D0000C94D9140F931F9341E050E060E070E035
:1029E0008A019B0104C0000F111F221F331F8A950B
:1029F000D2F7C901B8011F910F910C94D9140F930C
:102A00001F9341E050E060E070E004C0440F551FA8
:102A1000661F771F8A95D2F78091DB019091DC01C8
:102A2000A091DD01B091DE018A019B01082B192BD9
:102A30002A2B3B2BC901B8011F910F910C94D9147B
:102A40000F931F9341E050E060E070E004C0440F3A
:102A5000551F661F771F8A95D2F740955095609550
:102A600070958091DB019091DC01A091DD01B09126
:102A7000DE018A019B01082319232A233B23C90174
:102A8000B8011F910F910C94D9140F931F9341E03B
:102A900050E060E070E004C0440F551F661F771FD0
:102AA0008A95D2F78091DB019091DC01A091DD0144
:102AB000B091DE018A019B01082719272A273B27AD
:102AC000C901B8011F910F910C94D9140F931F9352
:102AD0000091DB011091DC012091DD013091DE01DC
:102AE000602B712B822B932B1F910F910C94D91477
:102AF0000F931F930091DB011091DC012091DD0108
:102B00003091DE0160237123822393231F910F9163
:102B10000C94D9140F931F930091DB011091DC01E9
:102B20002091DD013091DE016027712782279327F4
:102B30001F910F910C94D9140895292F220F920FF1
:102B4000990F890FE82FE695E695E695877051E095
:102B500001C0550F8A95EAF785E0E89FF00111243E
:102B6000E255FE4F20E030E070E04081CB01022EC4
:102B700002C0969587950A94E2F781708195842723
:102B80008523842781932F5F3F4F2530310569F7D7
:102B90000895292F220F920F990F890F682F66959C
:102BA00066956695982F977085E0689FB00111240F
:102BB00040E050E080E0FB01E40FF51FE255FE4FDE
:102BC000208130E0092E02C0369527950A94E2F75D
:102BD00021703327042E01C0220F0A94EAF7822BBA
:102BE0004F5F5F4F4530510531F70895BF92CF9247
:102BF000DF92EF92FF920F931F93CF93DF938C019D
:102C0000C090DB01D090DC01E090DD01F090DE01AE
:102C10008091DF019091E001A091E101B091E2018A
:102C2000C82AD92AEA2AFB2ACFE1D0E0D701C60177
:102C30000C2E04C0B695A795979587950A94D2F760
:102C400080FD04C0219790F7B12C07C0BC2EB801BD
:102C50008C2F0E943F030197A9F38B2DDF91CF9119
:102C60001F910F91FF90EF90DF90CF90BF9008954C
:102C7000CF93DF93EC010E94F615BE010E943F0343
:102C8000DF91CF9108951F93CF93DF93EB01909144
:102C90007501992321F0CB010E94381613C08823B7
:102CA00049F0CB010E94F615182F682FCE010E9423
:102CB0009D1504C0CB010E94C915182FBE01812F9C
:102CC0000E943F03DF91CF911F9108958091E3010E
:102CD00085958595859508958091E3018770089580
:102CE0009091E301977081E009F480E0089580916C
:102CF000EF0108959091EF01892B8093EF010895E2
:102D000080959091EF0189238093EF0108951092AF
:102D1000EF0108959091EE01892B8093EE010895C3
:102D200080959091EE0189238093EE010895109291
:102D3000EE0108959091ED01892B8093ED010895A6
:102D400080959091ED0189238093ED010895109273
:102D5000ED0108958091E401089508950C94AD1655
:102D60000C94AE169091E401981721F08093E40141
:102D70000C94B01608958091E401882329F01092F4
:102D8000E40180E00C94B0160895E0910901F091FF
:102D90000A018091EF018083E0910901F0910A011D
:102DA00090818091EE01892B8083E0910901F0915F
:102DB0000A0190818091ED01892B80838091E4014B
:102DC000882381F0E0910901F0910A019081892B1B
:102DD00080838091090190910A010E94CF1781118F
:102DE0000E94BB168091090190910A010C94DB0AA4
:102DF0000C94AD1698E0899F90011124262B209306
:102E0000E3010E94FF148091E301859585958595E6
:102E10000C94F8161092E30180E00C94F8162091BF
:102E2000E301809582238093E301982F977079F4D2
:102E300030E0482F082E000C550B2417350739F0C9
:102E40008595859585950E9420150C940A170895FF
:102E500080E090E00E949B2421E08C3E9E4F09F090
:102E600020E0822F089582E090E00C94932483E088
:102E700090E00C949324CF9384E090E00E949324FC
:102E8000C82F81E290E00E9493242C2F30E0A9010A
:102E9000582BCA01CF910895CF93C92F682F84E092
:102EA00090E00E94A1246C2F81E290E0CF910C94DD
:102EB000A124AB01BC018FE090E00C94B324AB01E2
:102EC000BC0183E190E00C94B32460E070E0CB019E
:102ED0000C945F1760E070E0CB010E9459170C94CE
:102EE00065176CEE7EEF80E090E00E94BF2460E00A
:102EF00082E090E00E94A12460E083E090E00E94E4
:102F0000A1241092DF011092E0011092E1011092D1
:102F1000E20160E084E090E00E94A12460E081E2B0
:102F200090E00E94A12460E085E090E00E94A1244E
:102F300060E086E090E00E94A1246FEF87E090E0DF
:102F40000E94A12440E050E0BA0188E090E00E9495
:102F5000B32460E08DE090E00E94A12440E050E0C6
:102F6000BA0188E190E00E94B32460E087E190E03C
:102F70000E94A12440E050E0BA018CE190E00E9460
:102F8000B32460E080E290E00E94A1240C946A17D0
:102F90000C947117682F8EE090E00C94A124FC0132
:102FA000329697E080E0915029F021912223D9F3C5
:102FB0008F5FF9CF08959C01FC0132969FEF80E06E
:102FC0004191461789F09F3F19F4411101C0982F94
:102FD0008F5F8630A9F79F3F39F0F901E90FF11DA6
:102FE00097FDFA956283089508959C012A5F3F4FEB
:102FF000FC014281461301C0128201968217930799
:10300000B9F708950C94DB170C94F517029626E097
:10301000FC0111922A95E9F7089508950C940D1872
:103020000C940D18CF930E9410180E946C060E94F9
:103030000E18C0E08C2F0E94D705811104C0CF5F0D
:10304000CC30C1F701C081E0CF9108950C940D18E8
:103050000C9426180E94281880911802843049F197
:103060001092F10120E488E190E00FB6F894A89561
:10307000809360000FBE2093600080E00E949E025B
:103080000E94281883B7817F846083BF83B78160E3
:1030900083BF7894889583B78E7F83BF0FB6F894EB
:1030A000A895809160008861809360001092600014
:1030B0000FBE08950C940D180E9458100E94CF0A5C
:1030C0000E949E020C945A181F920F920FB60F92F4
:1030D00011248F939F93AF93BF938091F10181113E
:1030E00013C080910E0290910F02A0911002B09136
:1030F00011024196A11DB11D80930E0290930F0203
:10310000A0931002B0931102BF91AF919F918F9144
:103110000F900FBE0F901F90189582E084BD93E032
:1031200095BD9AEF97BD80936E0008952FB7F894E0
:1031300080910E0290910F02A0911002B0911102A5
:103140002FBF0895CF92DF92EF92FF920F931F93BC
:103150002FB7F89440910E0250910F026091100227
:10316000709111022FBF6A017B01EE24FF248C01B4
:1031700020E030E0C016D106E206F30610F441501C
:1031800051099A01281B390BC9011F910F91FF901A
:10319000EF90DF90CF90089578941F920F920FB622
:1031A0000F9211248F939F93AF93BF9380910E0240
:1031B00090910F02A0911002B09111020196A11DF1
:1031C000B11D80930E0290930F02A0931002B09352
:1031D0001102BF91AF919F918F910F900FBE0F90F1
:1031E0001F90189587E797E7909301088093000850
:1031F0009AE088E10FB6F894A895809360000FBE1E
:1032000090936000FFCF0E942817811102C00E9496
:10321000C8170E9433178093F0010E943B179093C8
:103220001302809312020E943717682F70E080E02B
:1032300090E00C949F148091F60180FF0BC0609188
:103240000E0185E0689FB00111247595679575950D
:1032500067952BC081FF09C060910E0185E0689FD2
:10326000B00111247595679520C082FF07C0609159
:103270000E0185E0689FB001112417C09091F501FF
:103280009923D1F060910D01961788F720910E01D6
:1032900085E0289F90011124929FA001939F500DDB
:1032A000112470E0CA010E9465246038710540F461
:1032B0006115710519F406C065E070E0862F089568
:1032C0008FE7089581E008958091F60180FF08C09E
:1032D00060910C0170E0759567957595679521C0B3
:1032E00081FF06C060910C0170E07595679519C06B
:1032F00082FF04C060910C0170E010C09091F50154
:10330000992399F060910B019617A0F780910C0119
:10331000899FC001112470E00E9465246038710506
:1033200040F46115710519F406C061E070E0862F64
:1033300008958FE7089581E00895803F21F40E9469
:103340001B19819504C0813F29F40E941B198093A9
:10335000FA010895823F21F40E941B19819504C04F
:10336000833F29F40E941B198093F9010895893F36
:1033700019F40E94641905C08A3F31F40E9464194F
:1033800081958093FB0108958B3F21F40E9464197D
:10339000819504C08C3F29F40E9464198093FC013C
:1033A0000895843F21F48091F801816017C0853F22
:1033B00021F48091F801826011C0863F21F4809150
:1033C000F80184600BC0873F21F48091F801886088
:1033D00005C0883F31F48091F80180618093F80145
:1033E00008958D3F21F48091F60181600BC08E3FDE
:1033F00021F48091F601826005C08F3F29F480910D
:10340000F60184608093F6010895803F39F480913D
:10341000FA0187FF6CC01092FA0169C0813F29F45C
:103420008091FA011816BCF362C09091F901823FB5
:1034300029F497FF5CC01092F90159C0833F19F439
:103440001916CCF354C0893F41F48091FB01181642
:103450000CF04DC01092FB014AC08A3F29F48091C4
:10346000FB0187FF44C0F6CF8B3F39F48091FC010C
:1034700087FF3DC01092FC013AC08C3F29F4809137
:10348000FC011816BCF333C0843F21F48091F8018D
:103490008E7F17C0853F21F48091F8018D7F11C088
:1034A000863F21F48091F8018B7F0BC0873F21F488
:1034B0008091F801877F05C0883F31F48091F80141
:1034C0008F7E8093F80113C08D3F21F48091F60127
:1034D0008E7F0BC08E3F21F48091F6018D7F05C059
:1034E0008F3F29F48091F6018B7F8093F6018091C4
:1034F000F90181110EC08091FA0181110AC08091F9
:10350000FB01811106C08091FC01811102C0109263
:10351000F501089587EF91E00E94E60A0E9496184F
:103520009093F4018093F30108951F93CF93DF9359
:103530008091F3019091F4010E94A218AC01909146
:10354000F501992321F020910F0130E006C0209170
:10355000F2018AE0289F900111244217530708F4D2
:103560007BC08091F901C091FA01D091FB011091CB
:10357000FC01811107C0C1116BC0D11169C01111CB
:1035800067C06AC09F3F19F09F5F9093F5011816BE
:1035900024F40E941B198093F9018091F90187FF9F
:1035A00005C00E941B1981958093F9011C1624F413
:1035B0000E941B198093FA018091FA0187FF05C0D0
:1035C0000E941B1981958093FA013091F9013323F0
:1035D000E1F02091FA012223C1F045EB3403C00150
:1035E0001124992319F09093F90103C081E080938D
:1035F000F90135EB2303C0011124992319F09093AD
:10360000FA0103C081E08093FA011D1624F40E94A0
:1036100064198093FB018091FB0187FF05C00E9424
:10362000641981958093FB01111624F40E9464199A
:103630008093FC018091FC0187FF05C00E94641902
:1036400081958093FC01DF91CF911F910C948A1A90
:103650009F3F09F099CFAACFDF91CF911F91089595
:10366000E7EFF1E086E0DF011D928A95E9F710921D
:10367000F5011092F6010895833081F128F481302C
:1036800059F08230D1F00895853009F449C0B8F17D
:10369000863009F456C008958091F201262F30E05B
:1036A000280F311D2F3F310524F4680F6093F2017C
:1036B00008958FEF8093F201089580910F01262FD6
:1036C00030E0280F311D2F3F310524F4680F60933F
:1036D0000F0108958FEF80930F01089580910E01DF
:1036E000262F30E0280F311D2F3F310524F4680FBD
:1036F00060930E0108958FEF80930E0108958091DD
:103700000D01262F30E0280F311D2F3F310524F405
:10371000680F60930D0108958FEF80930D01089558
:1037200080910C01262F30E0280F311D2F3F3105ED
:1037300024F4680F60930C0108958FEF80930C01BF
:10374000089580910B01262F30E0280F311D2F3F67
:10375000310524F4680F60930B0108958FEF809377
:103760000B010895833011F128F4813049F0823043
:1037700091F00895853081F120F18630C1F10895EE
:103780008091F201681720F4861B8093F20108955E
:103790001092F201089580910F01681720F4861BA2
:1037A00080930F01089510920F01089580910E01EA
:1037B000681720F4861B80930E01089510920E0165
:1037C000089580910D01681720F4861B80930D01E8
:1037D000089510920D01089580910C01681720F44E
:1037E000861B80930C01089510920C01089580911E
:1037F0000B01681720F4861B80930B01089510922B
:103800000B0108950F931F9341E050E060E070E0DA
:103810008A019B0104C0000F111F221F331F8A95CC
:10382000D2F7C901B8010E949F141F910F910C9407
:1038300058108B3109F474C058F58B3009F492C0DC
:1038400078F4863009F446C020F4853009F44CC081
:103850008BC0873009F456C0883009F483C084C017
:10386000803109F470C068F48E3009F07DC0809119
:10387000F00182FB222720F991E0922790FB82F948
:1038800058C0863109F46EC0893109F46BC06CC030
:103890008A32E9F060F4873209F461C028F48E318D
:1038A00008F462C08D515CC08932F1F05DC0833490
:1038B00050F48A3308F051C0853309F450C088337E
:1038C00009F450C051C0833409F449C04DC00E946E
:1038D000C81748C08091F001817F8E7F8093F001EE
:1038E00081E08093FE0108950E9458102FEF83ED30
:1038F00090E3215080409040E1F700C000000E941A
:10390000F21830C08091F001982F9095917090FB43
:1039100080F98093F001911125C0897F877F10C0C5
:103920008091F00181FB222720F991E0922790FB02
:1039300081F98093F0019923A9F08091F0018160D1
:103940008093F0010FC08091F00183FB222720F9C2
:1039500091E0922790FB83F9ECCF895301C080E07E
:103960000E94021C81E0089580E0089580E008959F
:103970000C94B61C8E518A3030F4E82FF0E0E35DF1
:10398000FE4F8081089580E00895CF93C82F8091E5
:10399000FE01813051F018F0823099F17BC00E9415
:1039A0007716823209F078C004C00E9477168232FE
:1039B00061F48C2F0E94B81C811104C08C2F0E94CE
:1039C000191C1DC081E090E01AC08C2F0E94B61C0B
:1039D000811114C0C43179F048F4CB3079F0C03192
:1039E00009F05EC082E08093FE0108C0C93219F080
:1039F000C83321F055C01092FE0152C081E08170A1
:103A000051C0C93279F108F5C43161F1A0F4C73071
:103A100009F044C01092F20184E180930F01C09339
:103A20000E018CE380930D0188E080930C0188E205
:103A300080930B0133C082EE8C0F863078F58C2F8B
:103A40000E94BA1C8093FD0129C0CE34E9F020F415
:103A5000CB3421F56AE013C0C13579F0C235F1F4F9
:103A600061E00DC08091FD01882319F01092FD01E5
:103A700015C081E08093FE0115C061E006C0809111
:103A8000FD010E943C1B0AC06AE08091FD010E947A
:103A9000B21B04C01092FE0180E004C081E002C0AD
:103AA00080E0ADCFCF9108958091070208950F93E4
:103AB0001F93CF93DF9300D01F92CDB7DEB78C0159
:103AC0000E94AA1F823011F0843021F584E089839E
:103AD0001B830A8382E08093E9008FEF9091E800D6
:103AE000815095FD06C095ED9A95F1F70000811182
:103AF000F5CF8091E80085FF0DC040E050E063E025
:103B000070E0CE0101960E94C71F8091E8008E7779
:103B10008093E8000F900F900F90DF91CF911F914D
:103B20000F910895CF93DF9300D01F92CDB7DEB7EA
:103B300020911802243031F523E02983805891091F
:103B40009B838A8382E08093E9008FEF9091E80065
:103B5000815095FD06C095ED9A95F1F70000811111
:103B6000F5CF8091E80085FF0DC040E050E063E0B4
:103B700070E0CE0101960E94C71F8091E8008E7709
:103B80008093E8000F900F900F90DF91CF910895F0
:103B9000CF93DF93EC010E94AA1F823011F0843092
:103BA000F9F482E08093E9008FEF9091E800815072
:103BB00095FD06C095ED9A95F1F700008111F5CFBE
:103BC0008091E80085FF0CC040E050E066E070E0C6
:103BD000CE010E94C71F8091E8008E778093E80095
:103BE000DF91CF910895CF93DF93EC010E94AA1F3C
:103BF000823011F0843039F581E08093E9008FEF55
:103C00009091E800815095FD06C095ED9A95F1F7E9
:103C100000008111F5CF8091E80085FF14C040E0DD
:103C200050E068E070E0CE010E94C71F8091E8007C
:103C30008E778093E80088E0FE01AFEFB1E001905D
:103C40000D928A95E1F7DF91CF9108958091170247
:103C5000811109C00E9458210E94B5218091E20083
:103C600084608093E20008951092170208950895E9
:103C700008950C945C1842E061EC81E00E94D12030
:103C800042E261EC82E00C94D12080911A028330F0
:103C900009F460C030F4813071F0823009F499C0C9
:103CA00008958A3009F485C08B3009F46BC08930DF
:103CB00009F0A7C020C080911902813A09F0A1C083
:103CC0008091E800877F8093E80080911D029091A9
:103CD0001E02892B21F468E08FEF91E003C060E0C1
:103CE00080E090E070E00E9412208091E8008B77E5
:103CF0008093E800089580911902813209F081C013
:103D000080911D0290911E02029708F07AC0809166
:103D1000E800877F8093E8008091E80082FD05C07D
:103D2000809118028111F8CF6CC02091F30080912E
:103D3000F20090E0922B029729F48091F1008B7FA2
:103D4000813021F48091F100809307028091E80096
:103D50008B7753C080911902813A09F052C080914B
:103D60001D0290911E02892B09F04BC08091E80042
:103D7000877F8093E8008091E80080FFFCCF8091EE
:103D80001A0136C0809119028132D9F580911D0245
:103D900090911E02892BA9F58091E800877F80937E
:103DA000E8000E94062180911B0280931A010C9466
:103DB000581080911902813221F58091E800877FA7
:103DC0008093E8000E94062180911C0280930802E3
:103DD000089580911902813AA1F48091E800877FCB
:103DE0008093E8008091E80080FFFCCF809108027A
:103DF0008093F1008091E8008E778093E8000C9426
:103E00000621089584B7877F84BF0FB6F894A895DC
:103E100080916000886180936000109260000FBE06
:103E200090E080E80FB6F894809361009093610071
:103E30000FBE0E94300B0E9458210E94B521809134
:103E4000E20084608093E20078940E944A240E94F9
:103E5000360B80E191E00E94CA0A809118028530F9
:103E600069F40E942A18809116028823B1F30E94F7
:103E70001218882391F30E94B11FEFCF0E943E0BCE
:103E8000ECCF0C94431F292F332723303105C9F081
:103E900060F42130310581F02230310509F04AC04B
:103EA0008BE390E024EF32E049C02132310511F17B
:103EB0002232310579F13EC082E190E02FE233E019
:103EC0003DC099278130910561F040F08230910525
:103ED00059F0039779F5ECEAF2E008C0E0EFF2E080
:103EE00005C0E0EEF2E002C0E2EBF2E0849190E087
:103EF0009F0124C06115710541F061307105D1F455
:103F000089E090E02FE133E019C089E090E026E0FD
:103F100033E014C06115710541F06130710551F451
:103F200085E890E021E433E009C080E490E026ECED
:103F300033E004C080E090E020E030E0FA0131831B
:103F40002083089580911802843011F081E0089553
:103F500082E0089580910902811102C00C94A21F91
:103F6000089580E189BD82E189BD09B400FEFDCFDD
:103F70008091D8008F7D8093D8008091E00082608E
:103F80008093E0008091E00081FDFCCF0895CF9206
:103F9000DF92EF92FF920F931F93CF93DF93EC0189
:103FA0008B017A010E942521811133C0E114F104B3
:103FB00039F0F70180819181081B190BC80FD91FB7
:103FC000C12CD12C0115110519F18091E80085FD56
:103FD00016C08091E8008E778093E800E114F10428
:103FE00049F0F70180819181C80ED91ED182C0822B
:103FF00085E00FC00E942521882321F30AC0899102
:104000008093F10001501109FFEFCF1ADF0ADACFD8
:1040100080E0DF91CF911F910F91FF90EF90DF90A3
:10402000CF90089520911F02309120022617370764
:1040300048F06115710539F42091E8002E7720933E
:10404000E80001C0B901FC0120E06115710579F1BA
:10405000809118028823F1F18530F1F18091E80018
:1040600083FD3CC08091E80082FD2EC08091E80075
:1040700080FFEBCF2091F3008091F20090E0922B33
:104080006115710551F08830910538F42191209324
:10409000F100615071090196F3CF21E0089709F012
:1040A00020E08091E8008E778093E800CECF211148
:1040B000CFCF0AC080911802882361F0853061F06B
:1040C0008091E80083FD0AC08091E80082FFF2CF72
:1040D00080E0089582E0089583E0089581E00895E6
:1040E00020911F02309120022617370748F06115F2
:1040F000710539F42091E8002E772093E80001C083
:10410000B901FC0120E06115710591F1809118025F
:10411000882309F440C0853009F43FC08091E8004D
:1041200083FD3DC08091E80082FD2FC08091E800B2
:1041300080FFE9CF2091F3008091F20090E0922B74
:104140006115710559F08830910540F42491209350
:10415000F1003196615071090196F2CF21E0089784
:1041600009F020E08091E8008E778093E800CBCFC3
:104170002111CCCF0AC080911802882361F08530CC
:1041800061F08091E80083FD0AC08091E80082FF21
:10419000F2CF80E0089582E0089583E0089581E001
:1041A0000895982F973068F59093E900981739F0A3
:1041B0007091EC002091ED005091F00003C0242F8D
:1041C000762F50E021FD02C09F5FECCF3091EB00D5
:1041D0003E7F3093EB003091ED003D7F3093ED005A
:1041E0003091EB0031603093EB007093EC00209342
:1041F000ED005093F0002091EE0027FDE5CF80E028
:1042000008958F708093E90081E0089580911902EC
:1042100087FF11C08091E80082FD05C080911802DF
:104220008111F8CF11C08091E8008B770BC080918D
:104230001802882349F08091E80080FFF8CF809130
:10424000E8008E778093E80008952091E400309193
:10425000E50095E64091EC00842F817040FF23C07B
:104260008091E80080FD1DC080911802882399F09C
:10427000853099F08091EB0085FD11C04091E400FC
:104280005091E5002417350729F3915011F09A0158
:10429000E1CF84E0089582E0089583E0089581E00D
:1042A000089580E008954091E80042FFDDCF089531
:1042B0000E94C6210E94CE21E0EEF0E08081816064
:1042C0008083E8EDF0E080818F77808319BCA7EDD3
:1042D000B0E08C918E7F8C9380818F7E8083109252
:1042E000170208950F931F93CF93DF930E94C62167
:1042F0000E94CE21C8EDD0E088818F7788838881A5
:104300008068888388818F7D888319BC1092180209
:1043100010921402109216021092150200EE10E094
:10432000F80180818B7F808388818160888342E06F
:1043300060E080E00E94D120E1EEF0E080818E7F9D
:104340008083E2EEF0E080818160808380818860FC
:104350008083F80180818E7F80838881806188835B
:10436000DF91CF911F910F910895E8EDF0E08081EA
:104370008F7E8083E7EDF0E080818160808384E040
:1043800082BF81E0809317020C947221E8EDF0E087
:1043900080818E7F80831092E20008951092DA006F
:1043A0001092E10008951F920F920FB60F92112400
:1043B0002F933F934F935F936F937F938F939F932D
:1043C000AF93BF93EF93FF938091E10082FF0BC007
:1043D0008091E20082FF07C08091E1008B7F809393
:1043E000E1000E9449248091DA0080FF1FC0809183
:1043F000D80080FF1BC08091DA008E7F8093DA00A6
:104400008091D90080FF0DC080E189BD82E189BD26
:1044100009B400FEFDCF81E0809318020E94261EA1
:1044200005C019BC109218020E94341E8091E10050
:1044300080FF19C08091E20080FF15C08091E200EA
:104440008E7F8093E2008091E20080618093E200A1
:104450008091D80080628093D80019BC85E0809359
:1044600018020E94381E8091E10084FF30C08091C4
:10447000E20084FF2CC080E189BD82E189BD09B4DE
:1044800000FEFDCF8091D8008F7D8093D800809171
:10449000E1008F7E8093E1008091E2008F7E809327
:1044A000E2008091E20081608093E200809114023A
:1044B000882311F084E007C08091E30087FD02C0EB
:1044C00081E001C083E0809318020E94391E809130
:1044D000E10083FF29C08091E20083FF25C0809125
:1044E000E100877F8093E10082E0809318021092C0
:1044F00014028091E1008E7F8093E1008091E200C0
:104500008E7F8093E2008091E20080618093E200E0
:1045100042E060E080E00E94D1208091F00088605D
:104520008093F0000E94371EFF91EF91BF91AF91F1
:104530009F918F917F916F915F914F913F912F91BB
:104540000F900FBE0F901F9018951F920F920FB6ED
:104550000F9211242F933F934F935F936F937F9309
:104560008F939F93AF93BF93CF93DF93EF93FF937B
:10457000C091E900CF708091EC00D82FD17080FD00
:10458000D0E81092E9008091F000877F8093F000DE
:1045900078940E94E9221092E9008091F0008860EE
:1045A0008093F000CD2BCF70C093E900FF91EF9185
:1045B000DF91CF91BF91AF919F918F917F916F913B
:1045C0005F914F913F912F910F900FBE0F901F90D1
:1045D00018951F93CF93DF93CDB7DEB7AA970FB689
:1045E000F894DEBF0FBECDBFE9E1F2E08091F100AB
:1045F000819322E0E132F207C9F70E94451E8091C3
:10460000E80083FF2EC18091190290911A02492F70
:1046100050E04A30510508F024C1FA01EC58FF4F30
:104620000C947924803821F0823809F01AC108C02E
:104630008091150290911602992389F082600FC033
:1046400080911D028F70873008F00BC18093E900C4
:104650008091EB0085FB882780F91092E90090910A
:10466000E800977F9093E8008093F1001092F100AA
:10467000D1C0282F2D7F09F0F4C0882319F0823093
:1046800061F0EFC080911B02813009F0EAC09330E5
:1046900009F080E0809316022EC080911B028111E8
:1046A0002AC080911D028F702FEF280F263008F04E
:1046B000D8C08093E9002091EB0020FF1CC093300C
:1046C00021F48091EB00806214C09091EB00906126
:1046D0009093EB0021E030E0A90102C0440F551F88
:1046E0008A95E2F74093EA001092EA008091EB008D
:1046F00088608093EB001092E9008091E800877F4A
:104700008093E8000E940621ACC08111AAC01091DC
:104710001B021F778091E3008078812B8093E30058
:104720008091E800877F8093E8000E9406218091B5
:10473000E80080FFFCCF8091E30080688093E30075
:10474000111102C082E001C083E08093180289C089
:104750008058823008F085C080911B0290911C0225
:104760008C3D53E0950779F583E08A838AE289835B
:104770004FB7F894DE01139620E03EE051E2E32FBC
:10478000F0E050935700E49120FF03C0E295EF70F2
:104790003F5FEF708E2F90E0EA3010F0C79601C0B7
:1047A000C0968D939D932F5F243149F74FBF809121
:1047B000E800877F8093E8006AE270E0CE0101960E
:1047C0000E94122016C060911D0270911E02AE015F
:1047D0004F5F5F4F0E94411FBC01892B09F441C00C
:1047E0009091E800977F9093E80089819A810E94D8
:1047F00070208091E8008B778093E80032C0803889
:1048000081F58091E800877F8093E8008091140211
:104810008093F1008091E8008E7772CF811121C0E2
:1048200080911B0290911C0299270297D4F48091E9
:10483000E800877F8093E80080911B028093140238
:104840000E94062180911402811106C08091E3002C
:1048500087FD02C081E001C084E0809318020E94BD
:104860003B1E8091E80083FF0AC08091E800877FAB
:104870008093E8008091EB0080628093EB00AA9621
:104880000FB6F894DEBF0FBECDBFDF91CF911F9161
:1048900008950895CF93809118028823A1F0C091C4
:1048A000E900CF709091EC00892F817090FD80E835
:1048B000C82B1092E9008091E80083FD0E94E92254
:1048C000CF70C093E900CF91089597FB072E16F49F
:1048D000009407D077FD09D00E947F2407FC05D003
:1048E0003EF4909581959F4F0895709561957F4F07
:1048F0000895EE0FFF1F0590F491E02D0994AA1B77
:10490000BB1B51E107C0AA1FBB1FA617B70710F0BA
:10491000A61BB70B881F991F5A95A9F780959095EC
:10492000BC01CD010895F999FECF92BD81BDF89AE1
:10493000992780B50895A8E1B0E042E050E00C94DA
:10494000C724262FF999FECF92BD81BDF89A019711
:1049500000B4021639F01FBA20BD0FB6F894FA9AC7
:10496000F99A0FBE08950396272F0E94A2240E9451
:10497000A124252F0E94A224242F0C94A224019666
:10498000272F0E94A2240C94A124DC01CB01FC015E
:10499000F999FECF06C0F2BDE1BDF89A319600B498
:0E49A0000D9241505040B8F70895F894FFCFA3
:1049AE00015601005701065701E50128083C07147E
:1049BE00541DF31DC81D921D571D01946697C634D4
:1049CE0035F6F731333236000000000000010203E5
:0849DE000405060708090000AA
:00000001FF
